:020000040800F2
:100000008807002045020008E33A000899320008FA
:10001000E13A0008CD180008774100080000000010
:10002000000000000000000000000000913D0008FA
:10003000CF18000800000000E53A0008933D0008D2
:100040005F0200085F0200085F020008313D0008FF
:100050005F0200085F0200085F0200085F020008FC
:100060005F0200085F0200085F0200085F020008EC
:100070005F0200085F0200085F0200085F020008DC
:100080005F0200085F0200085F0200085F020008CC
:100090005F0200085F0200085F0200085F020008BC
:1000A0005F0200085F0200085F0200085F020008AC
:1000B0005F02000800000000000000005F0200086E
:1000C0005F0200085F0200085F0200085F0200088C
:1000D0005F0200085F0200085F0200085F0200087C
:1000E000D11800085F0200080000000000000000B6
:1000F0000000000000000000000000000000000000
:10010000000000005F020008000000005F0200081D
:1001100000000000000000005F0200085F0200080D
:100120005F0200085F0200085F0200085F0200082B
:100130005F02000800000000000000000000000056
:100140005F0200085F0200085F0200080000000074
:100150005F0200085F0200085F0200085F020008FB
:100160005F0200085F0200085F0200080000000054
:100170005F0200085F0200080000000000000000AD
:100180005F0200085F0200085F02000800F002F84A
:1001900000F049F80AA090E8000C82448344AAF1D8
:1001A0000107DA4501D100F03EF8AFF2090EBAE8D6
:1001B0000F0013F0010F18BFFB1A43F0010318479B
:1001C0003C7000005C700000103A24BF78C878C111
:1001D000FAD8520724BF30C830C144BF04680C604D
:1001E000704700000023002400250026103A28BF95
:1001F00078C1FBD8520728BF30C148BF0B60704799
:10020000662906F0BE80002070471FB506F0AFF8E3
:1002100000F0D4FB04000020002105F073FAE06038
:100220001FBD10B510BD00F0CDFC1146FFF7EDFF6E
:1002300005F036F900F0EBFC03B4FFF7F2FF03BC66
:1002400000F02EFD0948804709480047FEE7FEE719
:10025000FEE7FEE7FEE7FEE7FEE7FEE7FEE7FEE776
:1002600004480549054A064B70470000F93D00085F
:100270008D010008880100208807002088030020E5
:100280008803002010B54C1084EA530404D5404282
:10029000C1F1000138BF491E1B4204D55242C3F1CF
:1002A000000338BF5B1E00F0D6F814F0804F04D076
:1002B0004042C1F1000138BF491E14F0004F04D084
:1002C0005242C3F1000338BF5B1E10BD0FB41CB512
:1002D000074B06AA7B4469460090059800F055FB41
:1002E0000020694600F064FB1CBC5DF814FB0000B4
:1002F000D90600002DE9F0474FF0000A8946044670
:10030000C0F820A02046E1688847002876D025283C
:1003100006D0D4E901219047206A401C2062F1E711
:10032000E168204600258847C4F81CA0064600273F
:10033000C4F818A02A2E09D0304604F055FE38B370
:1003400004EB8708303EC8F8186019E059F8041B20
:10035000204604EB87029161E1688847012F064639
:1003600018D1E069002820DA25F020051DE0D8F832
:10037000180000EB800006EB40003038C8F8180089
:100380002046E1688847064604F02EFE0028EED19C
:10039000012F0AD02E2E08D12046E16888477F1C05
:1003A0000646022F45F02005C4DBA069002803DAC9
:1003B000404245F00105A061E80701D025F0100595
:1003C000B6B1A6F14100192802D8203645F40065DF
:1003D0004A463146204625604D46FFF711FF58B189
:1003E000012806D0ED1D25F0070000F1080989E776
:1003F00004E005F1040985E730468AE7206ABDE894
:10040000F0874FF0000200B5134694469646203917
:1004100022BFA0E80C50A0E80C50B1F12001BFF4BD
:10042000F7AF090728BFA0E80C5048BF0CC05DF823
:1004300004EB890028BF40F8042B08BF704748BF71
:1004400020F8022B11F0804F18BF00F8012B7047E5
:1004500070477047704753EA020C00F069802DE93D
:10046000F04B4FF00006002B1FBFB3FA83F503FAE1
:1004700005F424FA05F65E4012BF1643B2FA82F57F
:1004800002FA05F4C5F120051EBF22FA05FC44EA74
:100490000C04203556EA044C4FEA144418BF641C7F
:1004A0004FF000084FF00009904271EB030C39D374
:1004B000002919BFB1FA81F701FA07F6B0FA80F7FF
:1004C00000FA07F6C7F120071EBF20FA07FC46EA2C
:1004D0000C062037B6FBF4FCA7EB0507103F07F02E
:1004E0001F0BCBF120060CFA0BFB2CFA06F644BFCF
:1004F000B3460026202FA4BF5E464FF0000B5BEAF8
:10050000060C08BF4FF0010B19EB0B09ABFB027C8B
:1005100048EB0608C01B06FB02CC0BFB03CC71EBBF
:100520000C01C1E70B46024641464846BDE8F08B48
:1005300013B54FF000004FF00001AFF30080BDE8AD
:100540001C40704710B500F03DFA006810BD10B5B2
:10055000044600F037FA046010BD70472DE9FF4FE4
:100560000C461E464FF0FF378BB0D2E90001DDF894
:1005700060800A908A46C1F30A5505B93D460021BC
:1005800008464FF00000BAF1000F00F4400005DA11
:1005900000EB80004FF4400101EA50004FEA90590F
:1005A000B9F1010F00DDB9460A9850EA4A000ED0B1
:1005B00044F61050A5F2FF3545432F14B8F1000F53
:1005C0001ED07542291E1EDDC9F100021CE0B8F1E3
:1005D000010F4FF0000001D0302103E0F24305E0AD
:1005E0002154401CB042FBDB304600220021215444
:1005F0000B99C1F80880C1E900200FB000F0BCB928
:10060000BD1B6D1CDEE74A4600DA694206A800F011
:1006100063FA06AB93E8070003AB83E80700504694
:100620000A9900F044FB8DE80700A0F500501F3840
:1006300000900398002D0ADD42F21F014A4608444B
:10064000002303A90390684600F0ADFD09E0A0F582
:1006500000504A461F38002303A90390684600F063
:10066000B7FD8DE807000004000C03D04FF0FF3009
:10067000410800E01046B8F1000F03D000220092BC
:1006800015461EE0751E05D400F0A0F93032625503
:100690006D1EF9D5B3460122084302D000227F1C0B
:1006A00004E02078302801D100227F1E002A09971B
:1006B00084D01DE0112D07DA00F088F93032625540
:1006C0006D1C50EA0102F5D1084302D00098C8B170
:1006D0000EE00021681E05E0235C625C6354225436
:1006E000401E491C8142F7DBAB46A81B401E099007
:1006F000002004F80B000B98099AC0F80880C0E9A4
:10070000002B7AE711264FF0000857E72DE9F04F4C
:1007100088460446D21D22F0070191B0D1E90001BC
:10072000CDE90A0103F028FD02460B98C00F01D065
:100730002D2007E02068810701D52B2002E0202131
:1007400001EAC000032A099001D0072A05DB03460D
:100750004146204600F080F90BE12078800601D563
:10076000E06900E00620B8F1650F814606D0B8F1D7
:10077000660F18D0B8F1670F70D131E00020B9F1E1
:10078000110F009001DB112301E009F101030AAA16
:1007900001A90CA8FFF7E2FEDDE90C70002609F1C3
:1007A0000105834647E001204B4600904FF000478B
:1007B0000AAA01A90CA8FFF7D1FEDDE90DB00C993A
:1007C0005D46002610B909F101000D18B9EB0500CE
:1007D00003D4C0F1FF3609F10105A5EB09002BE0B8
:1007E000B9F1010F01DA4FF001090020B9F1110F41
:1007F0000090484601DD112300E003460AAA01A942
:100800000CA8FFF7ABFEDDE90C704D4600268346D1
:10081000207800070AD4AB4500DA5D4601A8012D17
:1008200004DD411911F8011C302907D04F4502DAC7
:1008300017F1040F04DA012082460FE06D1EEEE787
:10084000002F02DCED1B3E4403E0781CA84200DDD3
:100850007D1CB81B00F1010A4FF00047207800070B
:1008600003D4AA4501DB4FF0FF3A0021B7F1004F56
:100870000DF143088DF8431024D002202B23002FC4
:1008800001DA7F422D230A21021EA0F1010000DCC3
:100890005FB197FBF1FC97FBF1F201FB1C7C174663
:1008A0000CF1300C08F801CDEEE7A8F1010003705F
:1008B0002188090501D5452100E06521A0F1010845
:1008C00000F8011C09980FA9A1EB0807FF1D00B152
:1008D0000120411901EBEA70A1693844081A401E51
:1008E000A0612078C00602D42046AFF300800998AA
:1008F00028B1D4E901219047206A401C2062207869
:10090000C00622D52046AFF300801EE0002E04DB97
:10091000B34502DD01A8805D00E03020D4E901216B
:100920009047206A401C2062761CAAF101005FEA11
:10093000000A0AD100F042F8C0680168405CD4E9BE
:1009400001219047206A401C2062281EA5F1010564
:10095000DCDC07E0D4E9012118F8010B9047206A9C
:10096000401C2062381EA7F10107F3DC2046AFF3DC
:100970000080032011B041E630BCBDE8C08F00000C
:1009800001694A1C02610878704700B58FB0CDE953
:1009900001310021059105497944CDE90310114643
:1009A0006846FFF7A7FC0FB000BD0000E5FFFFFFA2
:1009B0000A6802F8010B0A6070470000004870479F
:1009C00044010020004870472401002030B5B0F1F8
:1009D0000A024FEA900E71F100034EEA817EB0EBFD
:1009E0000E0061EB91014FEA101E4EEA017E10EB02
:1009F0000E0041EB11114FEA102E4EEA016E10EB82
:100A00000E0041EB11214FEA104E4EEA014E10EB61
:100A10000E0041EB1141401841F100014FEAD000B6
:100A200040EA41704FEAD10110EB80054FEA8104A2
:100A300044EA907444EB01046D1944EB0404521B26
:100A4000A3414FF0000348BF0A3200D530BD401C1F
:100A500041F1000130BD00002DE9F0411F46044680
:100A600003260168072A01F4006004DB08B116A51B
:100A700005E016A503E008B115A500E015A521F0D5
:100A800010002060A069C01EA0610FB1401EA061CF
:100A90002046AFF300804FB1D4E90121384690479A
:100AA000206A401C2062C01C206206E0206AFAE72F
:100AB000D4E9012115F8010B9047761EF8D22046A3
:100AC000AFF30080BDE8F0814E414E006E616E00D4
:100AD000494E4600696E66002DE9F047814616468C
:100AE0008AB0354878440DC88DE80D003248784406
:100AF000801C03AC0DC884E80D0041F69B3008440F
:100B0000372190FBF1F290FBF1F5A5F1800501FB97
:100B100012041B3C02D56442012000E00020DFF8F3
:100B200098A080460027FA44AAF1BE0A0EE0E0072A
:100B30000AD03246684607EB470101230AEB8101E0
:100B400000F046FB8DE8070064107F1C002CEED1FE
:100B5000194F7F44AE3F19E0E80715D007EB0410AA
:100B60000DF1180A90E80E008AE80E00C068F04205
:100B700001D1981908903246012306A903A800F074
:100B800027FB03AB83E807006D10641C002DE3D145
:100B90004FF0010332466946B8F1000F03A802D0B6
:100BA00000F001FB01E000F013FBC9E90001C9F806
:100BB00008200AB0BDE8F087FC66000000487047D6
:100BC000240100207546FFF7F9FFAE46050069468F
:100BD000534620F00700854618B020B5FFF740FBCC
:100BE000BDE820404FF000064FF000074FF000082E
:100BF0004FF0000B21F00701AC46ACE8C009ACE8AF
:100C0000C009ACE8C009ACE8C0098D46704710B512
:100C10000446AFF300802046BDE81040FFF70CBB50
:100C20004FF0013C50F8042B51F8043B9A4221D17B
:100C3000A2EB0C03934313EACC1317D150F8042B07
:100C400051F8043B9A4215D1A2EB0C03934313EAEB
:100C5000CC130BD150F8042B51F8043B9A4209D124
:100C6000A2EB0C03934313EACC13DBD04FF000004C
:100C7000704700BFD01A01BAB1FA81F101F0180132
:100C800022FA01F0CB40C1F12001DBB2C0B2C01AA0
:100C90002CFA01F3D11A914311EAC311E6D170473E
:100CA00001491820ABBEFEE72600020070475FEA4C
:100CB000400C08BF91F0000F4FEA8C234FEAC1228D
:100CC00043EA51514FEA1C5018BF00F5F0404FEA7B
:100CD000300018BF41F000415FEA6C5C00F02980F1
:100CE000BCF1FF3F08BF40F080407047130C06BFC7
:100CF00012044FF0100C4FF0000C130E04BF120240
:100D00000CF1080C130F04BF12010CF1040C930F2B
:100D100004BF92000CF1020CD30F04BF52000CF17F
:100D2000010C11464FF00002A0F11F00A0EB0C00D7
:100D3000704711F0004F08BF704731F000413FF499
:100D4000D5AF0B0C06BF09044FF0100C4FF0000C90
:100D50000B0E04BF09020CF1080C0B0F04BF0901B4
:100D60000CF1040C8B0F04BF89000CF1020CCB0FAB
:100D700004BF49000CF1010CCCF12003A0EB0C00E6
:100D800022FA03F302FA0CF241EA030100F1010036
:100D9000704720F07F4C80EA030023F07F47ACEBE4
:100DA000070303F57C5300F0004003F1FF032DE936
:100DB00080494FEA154B09B44FEA144325EA0B4E1C
:100DC00024EA03480FF2042606EB132749083E786D
:100DD0005FEA320203FB0667C7F5000707FB06F66A
:100DE0004FEA54374FEAD64606F1020607FB066C77
:100DF000CCF1005C4FEA1C472CEA074C07FB06F4D9
:100E00000CFB06F504EB15464FEA961634BF00209E
:100E10004FF000404FEAD13706FB07FC4FEA1C4C6D
:100E20000CFB0BF7D21B03FB0CF761EB07010CFB70
:100E30000EF7B0EB074072EB17420CFB08F734BF1C
:100E4000A2EB0742B2EB074261EB17414FEA0C44B9
:100E50004FEA910706FB07FC4FEA1C4C0CFB0BF713
:100E6000B0EBC74072EB573203FB0CF734BFA2EB79
:100E7000C742B2EBC74261EB57310CFB0EF7B0EB48
:100E8000C70072EB57720CFB08F734BFA2EBC70226
:100E9000B2EBC70261EB5771039F4FEA816141EAF0
:100EA000921104EBCC044FEAD1374FEA826206FB81
:100EB00007FC42EA90124FEA80604FEA1C4C0CFBA0
:100EC0000BF7D21B03FB0CF761EB07010CFB0EF7D2
:100ED000B0EB074072EB17420CFB08F734BFA2EBF4
:100EE0000742B2EB074261EB17414FEA8C554FEADC
:100EF000910704EB9C2406FB07FC4FEA1C4C0CFBFF
:100F00000BF7B0EBC74072EB573203FB0CF734BF63
:100F1000A2EBC742B2EBC74261EB57310CFB0EF7B5
:100F2000B0EBC70072EB57720CFB08F734BFA2EBB3
:100F3000C702B2EBC70261EB577115EB4C254FEAC4
:100F4000816141EA92114FEA82624FEAD13742EA67
:100F5000901206FB07FC44F100044FEA80604FEA60
:100F60001C4C0CFB0BF7D21B03FB0CF761EB0701CE
:100F70000CFB0EF7B0EB074072EB17420CFB08F7C7
:100F800034BFA2EB0742B2EB074261EB174115EB0E
:100F90001C154FEA813141EA92414FEA823242EA1E
:100FA00090424FEA80304FEA0C7644F1000448EA60
:100FB00003434EEA0B484FF0000EB2EB080C71EB06
:100FC000030724BF624639464EEB0E0E4FF0000B6E
:100FD0000018524149414BEB0B0BB2EB080C71EB83
:100FE00003077BF1000B24BF624639464EEB0E0E21
:100FF0004FF0000B0018524149414BEB0B0BB2EB89
:10100000080C71EB03077BF1000B24BF62463946E5
:101010004EEB0E0E51EA020718BF46F0010616EB22
:101020000E7655F1000254F1000103D5BDE88901A7
:10103000BDE80088BDE88901BDE80048B619524105
:1010400041EB0101A3F10103704780807F7E7D7C2D
:101050007B7A7978777676757473727171706F6E4A
:101060006E6D6C6C6B6A6A696868676666656464F5
:10107000636362616160605F5F5E5E5D5D5C5C5B7F
:101080005B5A5A59595858575756565555555454EE
:10109000535352525251515050504F4F4F4E4E4D4C
:1010A0004D4D4C4C4C4B4B4B4A4A4A494949484898
:1010B00048474747474646464545454444444443D8
:1010C00043434342424242414141002B9C4630D47B
:1010D00077002BD01CB54FEA370703B44FF0100050
:1010E0004FF01001BAF1000F06D0BCF1000FDCBFC9
:1010F00040F0080040F008014FF000000FBCBDE8D0
:1011000010400BF1010BBBF1010F08BF5FEA17079D
:1011100022BF12F1010211F101014FF0004143F130
:10112000000300F0004043EA00007047F9D357087D
:10113000D0E746EA064613F1400F4FEA16461FDD98
:1011400013F1200FDFBF16430A46002120335B4214
:10115000BED0C3F1200746EA064602FA07F74FEA77
:10116000164646EA0706C3F1200722FA03F201FAFF
:1011700007F721FA03F14FF0000342EA0702A7E75D
:1011800046EA020646EA06464FEA164646EA0106DF
:10119000BCBF46EA0646360C4FF000034FF0000293
:1011A0004FF0000194E72DE9804C9A46934670B4C5
:1011B00091E8380007C831EA400C48BF34EA430CD4
:1011C00003D5FFF7E6FDFFF780FFF0BCBDE8008C1C
:1011D0002DE9804C9A46934670B491E8380007C8D0
:1011E00010F0804F08BF13F0804F03D100F005F8D6
:1011F000FFF76BFFF0BCBDE8008C20F07F4780EA72
:10120000030023F07F4C07EB0C03A3F57C5300F0A5
:101210000040A3F1FE0392F0000F00F0B38095F0C0
:10122000000F00F077802DE901494FEA11404FEAA5
:10123000144621EA004800FB06FC24EA064708FBA6
:1012400006F607FB08F800FB07F718EB06484CEB1F
:10125000164C4FEA124B18EB07484FEA15464CEB79
:10126000174022EA0B4E0BFB06FC25EA06470EFB55
:1012700006F607FB0EFE0BFB07F71EEB064E4CEBCC
:10128000164C4FF000061EEB074E4CEB174B18EBBD
:101290000B0840F1000018EB0E0B58EB000840F172
:1012A00000008F1A4FF000013CBFC943661B14BFFA
:1012B000B5EB040C00213CBFC943F61B4FEA1744B1
:1012C0004EEA8E0E27EA04454FEA1C4704FB0762EC
:1012D0002CEA074C05FB07F70CFB05F604FB0CFC9E
:1012E00016EB074642EB174216EB0C4642EB1C424C
:1012F0001BEB060658EB0202414146EA9E0601D569
:10130000BDE80189B619524141EB0101A3F1010386
:10131000BDE801894FEA14454FEA114724EA054622
:1013200021EA074C05FB07F406FB07F70CFB06F167
:1013300005FB0CFC11EB074144EB17444FEA124745
:1013400011EB0C4144EB1C4422EA074C05FB07F26D
:1013500006FB07F70CFB06F605FB0CFC16EB074635
:1013600042EB174216EB0C4642EB1C456A1854F14F
:10137000000148BF7047B619524141EB0101A3F18A
:101380000103704795F0000F37D04FEA11424FEA42
:10139000144721EA024624EA074C02FB07F106FB48
:1013A00007F70CFB06F402FB0CFC14EB074441EBC3
:1013B00017414FEA154714EB0C4441EB1C4125EA59
:1013C000074C02FB07F506FB07F70CFB06F602FBD2
:1013D0000CFC16EB074645EB174516EB0C4645EBA8
:1013E0001C42121951F1000148BF7047B619524111
:1013F00041EB0101A3F1010370474FEA14454FEAA5
:10140000114724EA054621EA074C05FB07F106FBD4
:1014100007F70CFB06F24FF0000605FB0CFC12EB85
:10142000074241EB174112EB0C4251EB1C4148BF04
:101430007047921841EB0101A3F1010370470000CE
:101440001CB5E1208DF804004FF6FF7000900123D9
:1014500001AA7021014800F0A3FC1CBD300000204F
:10146000FEB50D46064600F077F84B2000F036FA40
:101470004FF6FF700090062301AA7121234800F067
:10148000F9FB9DF80400C409C0F3C00008B900F0DE
:101490004FF80CB10120FEBD9DF805009DF8061027
:1014A000000340EA01109DF80720194940EA121094
:1014B000120708609DF80830120B42EA03249DF8D9
:1014C000092014434C6004F09CFB9FED121B53EC6D
:1014D000112B04F0E5FB9FED111B53EC112B04F0D5
:1014E000DFFB04F031F900EE104ADFED0E0A9FED4C
:1014F0000E1AB8EE400A3060002060EE200A9FED20
:101500000B0A10EE810A85ED000AFEBD30000020B6
:101510001000002000000000000059400000000002
:101520000000B03E00008035000048430000484203
:101530001CB5BA208DF804004FF6FF70009001230F
:1015400001AA7021034800F02BFC142000F0C6F91A
:101550001CBD0000300000201CB5AC208DF804003C
:1015600033208DF8050000208DF806004FF6FF703F
:101570000090032301AA7021034800F011FC5020C1
:1015800000F0ACF91CBD00003000002070B5104D1B
:101590004FF4805400222146284600F0AFFA02F0B2
:1015A000E1FB00226110284600F0A8FA022003F0B7
:1015B000C3FE01222146284600F0A0FA022003F0D3
:1015C000BBFE21462846BDE87040002200F096BAD6
:1015D0000004004810B5064C01221103204600F01B
:1015E0008DFA20460122BDE81040D10200F086BAF3
:1015F0000004004870B5104D4FF48054002221467D
:10160000284600F07BFA02F0ADFB0122D102284609
:1016100000F074FA022003F08FFE012221462846D2
:1016200000F06CFA022003F087FE21462846BDE850
:101630007040002200F062BA000400482DE9F04733
:101640008046002402F07AFB164F00254FF48056A6
:101650004FF4006900223146384600F04FFA02206C
:1016600003F06AFE01223146384600F047FA600670
:10167000040E4946384600F03CFA08B1641CE4B256
:10168000012003F059FE6D1CEDB2082DE2D3B8F134
:10169000000F04D0FFF77AFF2046BDE8F087FFF780
:1016A000A9FFF9E7000400482DE9F041054602F0E2
:1016B00059FB154E4FF4805700223946304600F052
:1016C0001DFA00244FF40068EA094146304600F054
:1016D00015FA6806050E022003F02EFE0122394697
:1016E000304600F00BFA022003F026FE00223946B5
:1016F000304600F003FA022003F01EFE641CE4B240
:10170000082CE1D3BDE8F0810004004870B502F078
:1017100029FB01220E4DD4022146284600F0EEF9A5
:10172000012216033146284600F0E8F9042003F0B0
:1017300003FE00222146284600F0E0F9042003F0D1
:10174000FBFD31462846BDE87040002200F0D6B9C6
:101750000004004870B502F005FB104D4FF48054B2
:1017600000222146284600F0C9F9661000223146C1
:10177000284600F0C3F9042003F0DEFD01222146D3
:10178000284600F0BBF901223146284600F0B6F9A0
:10179000BDE87040042003F0CFBD00000004004805
:1017A0002DE9F041002402F0C9FA0122144DD602BD
:1017B0003146284600F0A2F9012003F0BDFD0122C8
:1017C00017033946284600F099F9012003F0B4FDCB
:1017D00008E0641CE4B2FA2C04D9FFF7BBFF012037
:1017E000BDE8F0813146284600F083F90028F0D1A9
:1017F00000223946284600F081F90020F0E7000079
:10180000000400482DE9F0411E461546884607466B
:101810000024FFF77BFF3846FFF746FFFFF7C0FFC6
:101820004046FFF741FFFFF7BBFFFFF76FFF47F0B1
:101830000100FFF739FFFFF7B3FF6F1E08E0BC425E
:1018400001D1002000E00120FFF7F8FE3055641CB4
:10185000AC42F4DBBDE8F041FFF77CBF70B50D464C
:101860000446FFF753FF2046FFF71EFFFFF798FFE0
:101870002846FFF719FFFFF793FFFFF747FF44F0F4
:101880000100FFF711FFFFF78BFF0020FFF7D6FEE7
:101890000446FFF75FFF204670BD70B515460E4643
:1018A0000446FFF733FF2046FFF7FEFEFFF778FF01
:1018B0003046FFF7F9FEFFF773FF2846FFF7F4FE07
:1018C000FFF76EFFBDE87040FFF744BFFEE77047CB
:1018D0004FF4804000F016B872B6FEE770B50446CB
:1018E00000F012F90546601C02D004480078044458
:1018F00000F00AF9401BA042FAD370BD000000209E
:1019000070470000044910B50A68024202D008601E
:10191000FFF7F6FF10BD0000140401402DE9F04F61
:10192000DFF8AC9100230325A9F1040B85B04FF03B
:10193000010C0F2709F1040AABF1040EBFE000BF50
:101940000CFA03F6324075D00C7904F00304012C34
:1019500001D0022C1BD1846800945C0005FA04F8C5
:101960000494009C24EA08040094D1F80C80049CA0
:1019700008FA04F8009C48EA0408C0F808804468A3
:10198000B4430E79C6F300169E40264346600C7998
:10199000E443A4070AD0C4684FEA430805FA08F6EE
:1019A000B4438E6806FA08F62643C6600C7904F044
:1019B0000304022C10D1DC0800EB84040294246A96
:1019C0005E074FEAD66807FA08F6B4430E6906FACE
:1019D00008F62643029C266204684FEA430805FA8B
:1019E00008F6B4430E7906F0030606FA08F6264315
:1019F00006604C6814F4403F60D0364C266E46F0CA
:101A000001062666246E23F0030604F00104009408
:101A1000314C34440294A4689E074FEA167807FAC2
:101A200008F6B443B0F1904F05D02C4EB04204D12B
:101A3000012612E042E000260FE0294EB04201D11B
:101A400002260AE0274EB04201D1032605E0264EC9
:101A5000B04201D1042600E0072606FA08F6264324
:101A6000029CA660D9F800604C46D1F804809643E9
:101A70005FEAC82800D516432660DAF800405646CB
:101A8000D1F8048094435FEA882800D51443346079
:101A9000DBF800405E46D1F8048094435FEA883862
:101AA00000D514433460DEF800407646D1F8048057
:101AB00094435FEAC83800D5144334605B1C0A685D
:101AC00032FA03F47FF43CAF05B000F00FB8000029
:101AD00008040140001002400000014000040048DA
:101AE00000080048000C00480010004830BCBDE869
:101AF000C08F0069084000D0012070470AB18161A1
:101B0000704781627047000001488068704700009C
:101B10000000002090F84120202A24D190F8402095
:101B2000012A20D0012280F84020242280F8412080
:101B30000268136823F0010313600268136823F43A
:101B400080531360026813680B43136001680A68CE
:101B500042F001020A60202180F84110002180F843
:101B60004010084670470220704790F84120202A14
:101B700022D190F84020012A1ED0012280F8402076
:101B8000242280F841200268136823F001031360C7
:101B90000268136823F4706343EA0121116001684D
:101BA0000A6842F001020A60202180F841100021F9
:101BB00080F84010084670470220704770B5040056
:101BC00004D094F84100002510B106E0012070BD5A
:101BD00084F84050204600F079F9242084F8410030
:101BE0002068016821F0010101606068216820F02F
:101BF000706008612068816821F400418160E068BC
:101C00000128A06807D040F4044021688860E0689B
:101C1000022803D006E040F40040F6E721684FF4C4
:101C20000060486020684168114A114341602068A3
:101C3000C16821F40041C160D4E904010843A169ED
:101C400040EA01202168C860D4E9070108432168FF
:101C500008602068016841F001010160656420208E
:101C600084F84100256384F84250002070BD0000D4
:101C7000008000022DE9F84F044690F84100DDF89D
:101C800028A01F4690468B4620287ED194F840001D
:101C900001287AD0012084F84000FFF735FF06467E
:101CA000012200901923D103204601F0AFFBE0BBD5
:101CB000222084F84100102084F842000025656449
:101CC000C4F8248067856563618D3148FF274FF034
:101CD00080784FF00079FF2903D927853A46009094
:101CE00039E0618D218500903AE05946204601F0A7
:101CF00075FB13E001F0B6FBB8B92068406A616A71
:101D00000870606A401C6062208D401E80B2208591
:101D1000618D491E6185618D01B168B1608D32466A
:101D2000002851462046E5D100E002E001F0E8FB42
:101D3000D0B1012000F030B8534600228021204667
:101D4000009601F063FB0028F3D1608DFF2804D9D1
:101D500027853A4600954346C7E7608D2085009564
:101D600094F828204B46C0E721682020C8612168EC
:101D70004A68084B1A404A6084F8410084F842508F
:101D800084F840500020D5E7FFE70220D2E70000AA
:101D90000024008000E800FE18BCBDE8E08F0000D1
:101DA0002DE9F84F044690F84100DDF828A01F46C1
:101DB00090468B4620287ED194F8400001287AD0A6
:101DC000012084F84000FFF79FFE064601220090A4
:101DD0001923D103204601F019FBE0BB212084F830
:101DE0004100102084F8420000256564C4F8248076
:101DF00067856563618D3148FF274FF080784FF02C
:101E00000079FF2903D927853A46009039E0618D92
:101E1000218500903AE05946204601F0DFFA13E0B0
:101E200001F094FBB8B9606A216800788862606A42
:101E3000401C6062608D401E6085208D401E80B217
:101E40002085618D01B168B1608D32460028514610
:101E50002046E5D100E002E001F052FBD0B10120C4
:101E600000F030B85346002280212046009601F051
:101E7000CDFA0028F3D1608DFF2804D927853A4692
:101E800000954346C7E7608D2085009594F828208B
:101E90004B46C0E721682020C86121684A68084B8A
:101EA0001A404A6084F8410084F8425084F8405057
:101EB0000020D5E7FFE70220D2E7000000200080E5
:101EC00000E800FE18BCBDE8E08F000030B59DB012
:101ED0000446142117A8FEF794FA5C216846FEF721
:101EE00090FA17492068884227D1402000250090A9
:101EF0000C95684600F034F908B1FFF7EDFC114C81
:101F0000E06C40F00200E064E06C17A900F0020011
:101F10001C90C02017901220CDE9180503201A90BC
:101F200004201B900848FFF7F9FCA06D40F4001056
:101F3000A065A06D00F400101C901DB030BD000025
:101F4000005400400010024000040048024881682C
:101F500002781144816070470000002010B5002411
:101F6000032000F071F80F2000F008F808B10124F8
:101F700001E000F025F8204610BD000070B50E4EBF
:101F800005460024307898B14FF47A71B1FBF0F037
:101F90000A490968B1FBF0F000F003FF40B9102DC9
:101FA00006D200222946501E00F02EF8756000E08F
:101FB0000124204670BD0000000000200C0000201D
:101FC000094808B5016E41F001010166016E01F09A
:101FD00001010091816D41F080518165806D00F0BB
:101FE0008050009008BD000000100240002809DB6E
:101FF00000F01F02012191404009800000F1E02023
:10200000C0F8001170470000F0B40E4B1B680C467E
:10201000C3F30223C3F10705042D00D90425191DBC
:10202000072901D2002300E0DB1E012606FA05F194
:10203000491E214099409E40761E16403143F0BC17
:1020400002F0B2B80CED00E0064900F007020868A3
:102050004FF6FF03184040EA0220034A104308608D
:10206000704700000CED00E00000FA051649B0F5DD
:10207000007F0868C0F3412009D0022805D0086815
:1020800020F4C06040F480600860002070470128A0
:10209000FBD0086820F4C06040F4007008600B4872
:1020A0003222006850430A4AB0FBF2F0401C00E0C4
:1020B000401E4A69520501D50028F9D148694005FA
:1020C000E3D5032070470000007000400C000020A2
:1020D00040420F000A490A6822F007020A600949D3
:1020E0000A6842F004020A60012807D040BF20BFFE
:1020F00020BF086820F004000860704730BFF8E790
:102100000070004010ED00E00B490A6822F0070261
:10211000521C0A6009490A6842F004020A60012858
:1021200007D040BF20BF20BF086820F0040008602F
:10213000704730BFF8E700000070004010ED00E08D
:102140000248006800F4C060704700000070004062
:10215000B0F5804F084601D0FFF7BCBFFFF7D4BFF2
:102160002DE9F84F044600270088A84D3E4600059B
:1021700015D5606C60B1B0F5000F04D0B0F5400F1C
:102180002BD001270AE0E86840F48030E86024E0C2
:102190000021201D01F0A8FC07001ED03E4620684B
:1021A00080033AD5A86D4FF00008C00009D4A86D8F
:1021B00040F08050A865A86D4FF0010800F08050F5
:1021C0000090DFF84CA2DAF8001041F48071CAF8F0
:1021D0000010FFF799FC814610E0D5F88800616C8B
:1021E00020F440000843C5F88800D8E7FFF78CFCCE
:1021F000A0EB0900022801D9032705E0DAF8000066
:10220000C005F3D5002F7DD04FEA0706B8F1000FC7
:1022100003D0A86D20F08050A8652078C00707D0B3
:10222000D5F88800216A20F003000843C5F888002B
:102230002078800707D5D5F88800616A20F00C0067
:102240000843C5F888002078400707D5D5F88800EE
:10225000A16A20F030000843C5F888002078800685
:1022600007D5D5F88800E16A20F440600843C5F836
:1022700088002088800507D5D5F88800E16B20F418
:1022800040200843C5F888002088400507D5D5F8C8
:102290008800216C20F440100843C5F8880020789D
:1022A000400607D5D5F88800216B20F4405008433C
:1022B000C5F888002078000607D5D5F88800616B3E
:1022C00020F440400843C5F888002088C00507D5A1
:1022D000D5F88800A16B20F440300843C5F8880089
:1022E00020684FF0006700034FF0806850D5D5F8A4
:1022F0008800A16C20F040600843C5F88800A06CFD
:10230000B84200E005E03BD1E86840F48010E860A6
:102310003EE0D5F8900010F4407014D0A16D8142D9
:1023200011D0D5F89000D5F8901020F4407041F409
:102330008031C5F89010D5F8901021F48031C5F89F
:102340009010C5F89000C00711D0FFF7DDFB0746DD
:1023500041F2883907E000BFFFF7D6FBC11B4945B2
:1023600001D9032652E7D5F890008007F4D5D5F8B7
:102370009000A16D20F440700843C5F8900045E737
:10238000404505D10121201D01F0AEFB00B10646FC
:102390002068400317D5D5F88800E16C20F0406034
:1023A0000843C5F88800E06CB84204D1E86840F4FE
:1023B0008010E86007E0404505D10121201D01F0B3
:1023C00093FB00B106462088400411D5D5F888005B
:1023D000216D20F040500843C5F88800206DB0F111
:1023E000805F05D10221201D01F07EFB00B1064671
:1023F0002088000406D555F8880F616D20F08040D4
:1024000008432860304600F005B800000010024084
:102410000070004018BCBDE8E08F00002DE9F047D7
:102420000F4605006BD0494E306800F00700B842F7
:1024300009D2306820F0070038433060306800F07F
:102440000700B8425BD12878414C80070AD5A868BC
:10245000A16801F0F001884204D9A16821F0F001DF
:102460000143A1602878C0072CD06868032811D0E8
:10247000022812D0216898B1490500293FDAA168E5
:1024800021F003010143A160FFF73EFB804641F2CA
:10249000883910E021688901EFE721688903ECE7BA
:1024A0008907EAE7FFF730FBA0EB0801494502D9AD
:1024B0000320BDE8F087A068696800F00C00B0EB6D
:1024C000810FEFD1287880070AD5A868A16801F0AC
:1024D000F001884204D2A16821F0F0010143A1601B
:1024E000306800F00700B8420BD9306820F00700D0
:1024F00038433060306800F00700B84201D0012056
:10250000D7E72878400705D5A068E96820F4E0609F
:102510000843A0602878000706D5A068296920F440
:10252000605040EAC100A06000F01AF8A168094AB2
:10253000C1F30311515C01F01F01C8400649086056
:1025400006480068BDE8F047FFF718BD00200240CC
:1025500000100240786400080C00002004000020F5
:1025600070B52549002318468A68CC6812F00C0221
:1025700004F00306214C4FEA640509D00C2A05D06B
:10258000042A32D0082A00D1284670BD012E10D16D
:102590000B681B0704D4D1F89430C3F3032302E083
:1025A0000B68C3F30313164E56F82330DAB10C2A26
:1025B000EBD1C86800F00300022818D0032818D017
:1025C0001846CA68CB68C2F30212C3F3062343431A
:1025D000521CB3FBF2F2C868C0F34160401C4000DB
:1025E000B2FBF0F070BD184670BD204670BD2046AD
:1025F000E7E72846E5E70000001002400024F40069
:10260000886400082DE9F84304006FD0FA4DA868EB
:1026100000F00C06E86800F003072078C00664D5D7
:1026200076B10C2E01D1012F0AD0A06900282868AC
:102630007AD040F001002860FFF766FA80465DE03E
:102640002868800702D5A0690028DED0216A2868A2
:10265000000703D5286800F0F00004E0D5F89400E6
:10266000F02202EA1010814216D9084601F0D2FA8F
:1026700000283BD1286840F0080028602868216ABB
:1026800020F0F000084328606868E16920F47F408A
:1026900040EA0120686016E0286840F008002860E1
:1026A0002868216A20F0F000084328606868E16922
:1026B00020F47F4040EA0120686026B9206A01F0DA
:1026C000A9FA0028D5D1FFF74BFFA968CB4AC1F37F
:1026D0000311515C01F01F01C840C9490860C94895
:1026E0000068FFF74BFC00287ED12EE0CAE000BF57
:1026F000FFF70AFAA0EB0800022876D828688007BE
:10270000F6D5286840F0080028602868216A20F083
:10271000F000084328606868E16920F47F4040EADF
:102720000120686011E0FFE720F001002860FFF75A
:10273000EBF9804606E000BFFFF7E6F9A0EB0800E2
:102740000228DAD828688007F6D42078C00740D05D
:10275000082E18D00C2E01D1032F14D06068B0F5CC
:10276000803F17D0B0F5A02F286817D020F4803014
:102770002860286820F4802028606068E0B1FFF7B6
:10278000C3F9804614E02868800322D560680028D9
:1027900078D01EE0286840F48030EDE740F48020D7
:1027A0002860F7E7FFF7B0F9A0EB08006428A4D889
:1027B00028688003F6D50CE0FFF7A6F9804605E00F
:1027C000FFF7A2F9A0EB0800642896D828688003D8
:1027D000F6D4207880073BD5042E11D00C2E01D1E1
:1027E000022F0DD0E06801E0AAE1FFE00028286890
:1027F0001ED040F480702860FFF786F907460CE091
:10280000286840050CD5E0680028C1D008E000BF6A
:10281000FFF77AF9C01B022893D828684005F7D53E
:102820006868217C20F0F85040EA016068600FE0A1
:1028300020F480702860FFF767F9074605E000BFC5
:10284000FFF762F9C01B0228B1D828684005F7D409
:102850002078000729D560690028D5F8940012D0A7
:1028600040F00100C5F89400FFF74EF9074604E078
:10287000FFF74AF9C01B022899D8D5F894008007C1
:10288000F6D512E02BE120F00100C5F89400FFF727
:102890003BF9074605E000BFFFF736F9C01B0228E9
:1028A00085D8D5F894008007F6D42078400766D5FF
:1028B000A86D0027C00008D4A86D40F08050A8651E
:1028C000A86D012700F0805000904F480168C905AD
:1028D00012D40168814641F480710160FFF714F958
:1028E000804605E0FFF710F9A0EB080002287DD82C
:1028F000D9F80000C005F5D5A068012816D0052834
:10290000D5F8900017D020F00100C5F89000D5F858
:10291000900020F0040000BFC5F89000A06841F2CC
:102920008839C0B1FFF7F0F880460FE0D5F8900085
:1029300040F00100F0E740F00400C5F89000F5E732
:10294000FFF7E2F8A0EB080149454FD8D5F8900011
:102950008007F5D50EE0FFF7D7F8804606E000BF08
:10296000FFF7D2F8A0EB080149453FD8D5F8900011
:102970008007F5D41FB1A86D20F08050A86520789D
:10298000800628D5606A0028D5F8980012D040F05B
:102990000100C5F89800FFF7B7F8074605E000BF4B
:1029A000FFF7B2F8C01B022820D8D5F8980080079E
:1029B000F6D510E020F00100C5F89800FFF7A4F864
:1029C000074604E0FFF7A0F8C01B02280ED8D5F890
:1029D00098008007F6D4A06AF0B3022816D00C2E17
:1029E0007DD0286820F08070286000E0A7E0FFF725
:1029F0008BF80446A6E0000000100240786400084E
:102A00000C0000200400002000700040E868E26A2A
:102A100000F00301914228D1216B00F070020901FE
:102A20001039914221D1626B00F4FE41B1EB022FCB
:102A30001BD194F8382000F07841B1EBC26F14D16B
:102A4000A18F00F4C00249084905A1F50011914287
:102A50000BD194F8401000E06AE04908490600F004
:102A6000C060A1F1007181424BD00C2E73D0286858
:102A7000400170D4286820F080702860FFF744F887
:102A8000064604E0FFF740F8801B022857D8286864
:102A90008001F7D4F4E90B016FF00F0202EB011192
:102AA0000843218A5204490802EB4151A26841EAD5
:102AB00002210843217D4FF07E42490802EB41612B
:102AC0000843217B40EAC160E968244A1140084379
:102AD000E860286840F080702860E86800E03AE02C
:102AE00040F08070E860FFF70FF8044605E000BF93
:102AF000FFF70AF8001B022821D828688001F7D5C3
:102B000027E02868800124D4286840F0807028607D
:102B1000E86840F08070E860FEF7F6FF044604E0E5
:102B2000FEF7F2FF001B022809D828688001F7D5BC
:102B30000FE000BFFEF7E8FF001B022802D90320C8
:102B4000BDE8F88328688001F4D4E86804490840A7
:102B5000E8600020F4E70120F2E700008C809D018E
:102B6000FCFFEEFE2DE9F05F044690F8200093464E
:102B70008A46012825D0012684F82060022084F8A6
:102B800021002168CA2048622168532048622068D9
:102B9000816821F4806181602068C16801F0800152
:102BA00061F49061C1602068C0684FF00007400682
:102BB0004FF0FF081AD4FEF7A7FF05464FF47A79C5
:102BC00010E0022000F03CB8FEF79EFF401B484595
:102BD00008D92168C1F82480032084F8210084F8F2
:102BE0002070EFE72068C0684007EDD52168C1F884
:102BF00014A02068816821F0070141EA0B0181607F
:102C00000E48016841F4801101600C4808300168E9
:102C100041F4801101602068816841F48041816045
:102C20002068816841F4806181602168C1F8248056
:102C300084F8216084F820700020C3E7000401407C
:102C400030BCBDE8C09F704710B50B4904464FF437
:102C5000801008602068C168490508D5C16801F086
:102C6000800161F49061C1602046FFF7ECFF012014
:102C700084F8210010BD00001404014010B50400C8
:102C80004FF0010044D094F8210028B9002084F8C6
:102C90002000204600F040F8022084F8210021683E
:102CA000CA204862216853204862204600F0F0FFA5
:102CB00000282DD120688168164A11408160216862
:102CC00088686268A369104322691A4310438860C8
:102CD0002168E068086120680169228941EA0241AF
:102CE0000161204600F0F8FF002811D12168CA6C6C
:102CF00022F00302CA646269E16911432268D36C5D
:102D00001943D1642268FF215162012184F8211006
:102D100010BD0000BFFF8FFF10B598B004465C21C6
:102D20006846FDF76EFB0F492068884218D14FF4C2
:102D300000300090001216906846FFF711FA08B1B3
:102D4000FEF7CAFD084850F8901F41F400410160A9
:102D5000002211460320FFF757F90320FFF746F939
:102D600018B010BD002800400010024070B50446A5
:102D70000068C16821F0A001C160FEF7C5FE0546EC
:102D80004FF47A7607E000BFFEF7BEFE401BB0426C
:102D900001D9032070BD2068C0688006F4D50020EA
:102DA00070BD10B5401EB0F1807F01D3012010BD71
:102DB0004FF0E02460610F21601701F0F5F9002069
:102DC000A06107202061002010BD000030B590F800
:102DD0003C20012A37D0012280F83C20CA688C6848
:102DE00022F4407222434C6822F4806222430C6831
:102DF00022F4006222430C6922F4805222434C697F
:102E000022F4005222438C6A22F4804222430C8B2B
:102E100022F4702242EA04420C4D04680023AC42C2
:102E20000CD18D8C22F4700242EA0552CD6922F059
:102E300080722A43096A22F000720A43626480F8B1
:102E40003C30002030BD022030BD0000002C01408D
:102E5000F0B590F83C20012A29D0012480F83C40AC
:102E6000022280F83D2003685A689D68114EB342E3
:102E700003D122F470074A683A4322F070070A68C7
:102E80003A435A600268B24205D0B2F1804F02D094
:102E9000094B9A4204D1896825F080031943916057
:102EA00080F83D40002180F83C100846F0BD02202B
:102EB000F0BD0000002C01400040014010B5044668
:102EC000022249B104290ED0082913D094F84700F2
:102ED000012816D0012010BD94F844000128F9D132
:102EE00084F844200FE094F845000128F2D184F8DA
:102EF000452008E094F846000128EBD184F84620EC
:102F000001E084F847200422206800F0B3FF206825
:102F1000416C41F4004141640B492068884205D06E
:102F2000B0F1804F02D00949884207D18168084A30
:102F30001140062906D0B1F5803F03D0016841F069
:102F400001010160002010BD002C01400040014043
:102F50000700010010B5040003D094F83D0010B143
:102F600007E0012010BD002084F83C00204600F05E
:102F700023F8022084F83D00211D206800F044FF62
:102F8000012084F8480084F83E0084F83F0084F86B
:102F9000400084F8410084F8420084F8430084F83B
:102FA000440084F8450084F8460084F8470084F81B
:102FB0003D00002010BD000008B5006806498842A9
:102FC00008D10648016E41F400610166006E00F40C
:102FD0000060009008BD0000002C0140001002407D
:102FE00070B5044690F83C000025012817D0012652
:102FF00084F83C60022084F83D00226890682F4BE2
:10300000184020F47F4090600868502838D00DDCCC
:1030100020284FD005DC90B3102811D14AE00220BF
:1030200070BD302846D040280AD13BE060282FD020
:1030300070280DD0B0F5805F03D0B0F5005F12D0DE
:10304000012584F83D60002084F83C00284670BDCE
:10305000CB68D1E90121206800F019FF2068816860
:1030600041F0770109E0CB68D1E90121206800F047
:103070000EFF2068816841F480418160E1E719E03A
:10308000CA684968206801F053F85021206806E0BA
:10309000CA684968206801F05CF86021206800F087
:1030A00000FFCEE7CA684968206801F041F8402176
:1030B0002068F4E7226801461046F0E788FFFEFF2B
:1030C00010B586B0044614216846FDF79AF90D49FB
:1030D0002068884214D10C48C16C41F00201C164DF
:1030E000C06C694600F0020005900220009001903B
:1030F000002002900390012004900448FEF70EFC8B
:1031000006B010BD002C0140001002400004004831
:1031100070B5044690F83C0000260D4601280BD0FF
:10312000012084F83C000C2A4AD007DC82B1042A32
:1031300020D0082A06D131E0022070BD102A53D0D9
:10314000142A63D00126002084F83C00304670BD6C
:10315000206800F0AFFE2068816941F008018161BC
:103160002068816921F004018161206881692A69F0
:10317000114311E0206800F0D9FE2068816941F414
:10318000006181612068816921F48061816120682A
:1031900081692A6941EA02218161D4E7206800F04F
:1031A00001FF2068C16941F00801C1612068C1695F
:1031B00021F00401C1612068C1692A69114311E04D
:1031C000206800F029FF2068C16941F40061C161F5
:1031D0002068C16921F48061C1612068C1692A69E0
:1031E00041EA0221C161AEE7206800F045FF206896
:1031F000416D41F0080141652068416D21F00401F5
:1032000041652068416D2A69114311E0206800F092
:1032100061FF2068416D41F4006141652068416DA6
:1032200021F4806141652068416D2A6941EA0221EB
:10323000416588E710B5040003D094F83D0010B153
:1032400007E0012010BD002084F83C00204600F07B
:1032500022F8022084F83D00211D206800F0D4FDF2
:10326000012084F8480084F83E0084F83F0084F888
:10327000400084F8410084F8420084F8430084F858
:10328000440084F8450084F8460084F8470084F838
:103290003D00002010BD7047FEE701688A69D243F7
:1032A000920701D400228A6200688169C943C90774
:1032B00003D0816941F00101816170472DE9F04738
:1032C000044600688A461746816900252E46C906CD
:1032D000A9464FF0200849D51021C16137E000BF51
:1032E000BAF1FF3F33D0FEF70FFCC11B514502D8A6
:1032F000BAF1000F2BD12068416894F8422001F404
:1033000080418369DB431B041CD4B1F5804F19D085
:10331000202A17D0416841F480414160FEF7F4FB58
:1033200007460FE0FEF7F0FBC01B19280AD9606CB6
:1033300040F02000606484F8418084F8429084F872
:103340004090012520688069C0438006EAD4206847
:103350008069C043800602D5002DC1D003E015B9B5
:103360002168C1F81C8046F004060125216888699F
:10337000C20505D54FF4807246F00106CA610125E9
:10338000410509D522684FF4806146F00806D161F5
:103390000125800502D40AE0800507D521684FF495
:1033A000007046F00206C861012500E08DB120469C
:1033B000FFF773FF54F8240B4168074A114041603E
:1033C000206A3043206284F81D8084F81E9084F8BF
:1033D0001C902846BDE8F08700E800FE10B5C1F358
:1033E000090141EA02410268029C194321435068E5
:1033F00021F000414FF4806303EA5453024C23430D
:1034000098430843506010BDFF63FF032DE9F0416E
:103410001D4617460E460446DDF8188008E0681C75
:1034200006D0FEF771FBA0EB0800A8420BD855B1FF
:103430002068806936EA000012D00020B842EED041
:103440000020BDE8F08154F8440F40F0200044F81B
:103450000409202060700020A07020700120F0E797
:103460000120EBE72DE9F041202690460F46044667
:10347000002530E0424639462046FFF71FFF10BBCB
:1034800020688069C04380061ED420688169C943D2
:10349000490701D4218D19BB8169C943C90604D4E8
:1034A0001021C1610420606400E065642068C66189
:1034B00020684168114A1140416084F8416084F8F5
:1034C000425084F8405016E0FEF71EFBA0EB0800C7
:1034D000B84208D83FB120688069C0434007C9D4CA
:1034E0000020BDE8F08154F8440F40F0200044F87B
:1034F0000409667025700120F3E7000000E800FE73
:1035000070B516460D4604460DE032462946204663
:10351000FFF7D4FE08B1012070BDFEF7F5FA801B5D
:10352000A84207D835B120688069C0438006ECD432
:10353000002070BD54F8440F40F0200044F8040906
:10354000202060700020A0702070E4E770B516465F
:103550000D4604460FE0324629462046FFF7AEFEF0
:1035600008B1012070BD681C05D0FEF7CDFA801BA4
:10357000A84207D835B120688069C0438007EAD4E3
:10358000002070BD54F8440F40F0200044F80409B6
:10359000202060700020A0702070E2E710B50C467B
:1035A000B030C1B2002000F0FDF8102000EB141183
:1035B000002000F0F7F804F00F01BDE810400020F3
:1035C00000F0F0B870B5002400212046FFF7E6FFB8
:1035D00000250021012000F0E5F86D1CEDB2802DE2
:1035E000F7D3641CE4B2082CEED370BD10B50021F3
:1035F0000846FFF7D3FF00240121084600F0D2F867
:10360000641CE4B2802CF7D300210720FFF7C6FF2B
:1036100000248021012000F0C5F8641CE4B2802C55
:10362000F7D3002400212046FFF7B8FFFF21012037
:1036300000F0B8F8641CE4B2082CF3D300247F2116
:103640002046FFF7ABFFFF21012000F0ABF8641C20
:10365000E4B2082CF3D310BD2DE9F05F99469046F3
:103660008B4607460026DFF87CA031E020385E2834
:103670002ED885B241465846FFF790FF00240AEB4A
:103680000515012F2AD0285DC043C1B2012000F0EA
:1036900089F8641CA4B2082CF3D30BF10100C0B26A
:1036A0004146FFF77BFF0024012F05EB040017D0F4
:1036B000007AC043C1B2012000F074F8641CA4B2C7
:1036C000082CF1D3761C08F10800B6B200F0FF0810
:1036D00019F806000028C9D100F006B8295DD5E721
:1036E000017AE8E7E86A000830BCBDE8C09F10B581
:1036F0004FF09044002240212046FEF7FFF90022BF
:1037000080212046FEF7FAF9142001F007FE01227D
:1037100080212046FEF7F2F9142001F0FFFDE2219E
:10372000002000F03FF8142001F0F8FD2C210020CB
:1037300000F038F8142001F0F1FD2E21002000F0F7
:1037400031F8142001F0EAFD2F21002000F02AF8C2
:10375000142001F0E3FD2421002000F023F8812152
:10376000002000F01FF82321002000F01BF8A22108
:10377000002000F017F8C821002000F013F8A02165
:10378000002000F00FF84021002000F00BF8AF21DE
:10379000002000F007F820460122BDE8104040213B
:1037A000FEF7ACB970B50D4604464FF090460022C6
:1037B00040213046FEF7A2F917480CB1012200E083
:1037C00000220121FEF79AF90024280601D50122E2
:1037D00000E0002220213046FEF790F9002210215F
:1037E0003046FEF78BF90A2001F0A6FD01221021D8
:1037F0003046FEF783F90A2001F09EFD6806641C3E
:10380000050EE4B2082CE0D33046BDE8704001223A
:103810004021FEF773B90000000400482DE9F04391
:1038200087B014216846FCF7ECFD4A48C16C41F0B2
:103830000401C164C16C01F004010591C16C41F047
:103840008001C164C16C01F080010591C16C41F03F
:103850000101C164C16C01F001010591C16C41F02D
:103860000201C164C16C01F002010591C16C41F01B
:103870000801C164C06C4FF0904800F0080005904A
:10388000012241F608014046FEF738F90022F021F6
:103890004046FEF733F9DFF8C09041F601070022F9
:1038A00039464846FEF72AF94FF6FF700325CDE961
:1038B00000050024694602942848FEF72FF80B20E3
:1038C000CDE90005694602942548FEF727F848F23D
:1038D0000770CDE90005694602944046FEF71EF8E0
:1038E00041F6F80000900126CDE9016469464046A2
:1038F0000394FEF713F80097CDE901646946484642
:103900000394FEF70BF84AF23C70CDE900056946D6
:1039100002944846FEF702F8B00300904FF40410FA
:10392000CDE9010669464846FDF7F8FF0420CDE9D8
:103930000005694602940B48FDF7F0FF002211468E
:103940002820FEF761FB2820FEF750FB07B0BDE8FA
:10395000F083000000100240000400480008004806
:10396000001C0048000C0048144810B512490160C2
:1039700040F20951416000210122C0E902120161B7
:1039800041618161C1610162FEF718F908B1FDF77B
:10399000A3FF00210948FEF7BDF808B1FDF79CFF21
:1039A00000210648FEF7E1F8002803D0BDE81040EA
:1039B000FDF792BF10BD0000005400403000002011
:1039C000104810B50E49016000217F22C0E90112A4
:1039D000FF22C0E9032141618161C161FFF74EF916
:1039E00008B1FDF779FF04221E210648FFF7BAF857
:1039F000002803D0BDE81040FDF76EBF10BD0000E9
:103A0000002800408400002010B59AB000241794CC
:103A1000189415941694129413941C210BA81494C2
:103A2000FCF7EFFC2C216846FCF7EBFC2B482A49FD
:103A300001600121C0E9011440F2F311C0E903144F
:103A400044618461FFF786FA08B1FDF745FF4FF442
:103A50008050159015A92148FFF7C2FA08B1FDF76B
:103A60003BFF1E48FFF7E6FB08B1FDF735FF129458
:103A7000139412A919481494FFF7EAF908B1FDF755
:103A80002BFF6020CDE90B040D940E940F9410943D
:103A900008220BA911481194FFF73AFB08B1FDF772
:103AA0001BFF00944FF40050CDE9044001940294B0
:103AB000039400030694CDE907400994694607483A
:103AC0000A94FFF783F908B1FDF706FF0348FFF7F3
:103AD000F7FA1AB010BD0000002C0140A800002029
:103AE000FEE7FEE7704700002DE9F041444C054633
:103AF0008846E0680026810728680DD0E16801F05B
:103B00000301814216D1A8B1E0686968C0F30210D0
:103B1000401C88420ED120E0012804D0022805D0A4
:103B2000032807D108E02168890701E021684905D9
:103B3000002907DB01265FE02168890302D42168A0
:103B40004903F5E7E1686A686FF00F0321F073013C
:103B500003EB021211430143E160206820F0806012
:103B60002060FDF7D1FF074605E000BFFDF7CCFF61
:103B7000C01B022837D820680001F7D4B8F1000F25
:103B800018D0B8F1010F1DD0287D4FF07E414008BC
:103B900001EB4060A96840EA01202169194A1140FF
:103BA00008432061206840F080602060FDF7ACFF92
:103BB00007461AE0A868297B000240EAC160216933
:103BC000114AECE7288A1149400801EB4050A968E6
:103BD00040EA012021690E4AE1E700BFFDF794FFAA
:103BE000C01B022801D9032606E020680001F5D594
:103BF0002069A969084320613046BDE8F0810000D2
:103C000000100240FF80FFF9FF80FF070000E0FF87
:103C1000FF809FFFF8B51C4D06460024A86DC0002C
:103C200002D5FEF78DFA0DE0A86D40F08050A86532
:103C3000A86D00F080500090FEF782FAA96D21F087
:103C40008051A965B0F5007F04D0802E07D94FF0D0
:103C500003040AE0802E08D9A02E01D804E001D187
:103C6000022402E0702E00D101240848016821F0EE
:103C7000070121430160006800F00700A04201D065
:103C80000120F8BD0020F8BD0010024000200240D5
:103C90002DE9F041044600680025C168490617D4A3
:103CA000691EC160FDF730FF06464FF47A7803279E
:103CB00008E000BFFDF728FF801B404502D903251F
:103CC00084F821702068C068400601D4032DF1D12A
:103CD0002846BDE8F08100002DE9F0410646134872
:103CE0000025016821F080010160041F20684FF069
:103CF0000307800607D43046FFF738F890B186F8FE
:103D0000217003250EE0206820F02000206030465E
:103D1000FFF72CF810B186F821700325206840F0D9
:103D2000200020602846BDE8F08100000C280040FB
:103D30000148FEF789BF00008400002000B585B06F
:103D400014216846FCF75DFB4FF4006000900020F2
:103D50000190029069460248FDF7E0FD05B000BD04
:103D60000004004800B585B014216846FCF749FB03
:103D70004FF4006000900120019000200290039019
:103D800069460248FDF7CAFD05B000BD00040048C1
:103D90007047FEF7DBB810B596B044216846FCF7D3
:103DA00030FB142111A8FCF72CFB4FF40070FEF738
:103DB0005DF908B172B6FEE71820009001200024DA
:103DC000CDE906040590502008900A946846FEF755
:103DD00019FC08B172B6FEE70F20CDE91104139467
:103DE0001494002111A81594FEF718FB002801D0A7
:103DF00072B6FEE716B010BD0248016841F47001CA
:103E00000160704788ED00E070B50268164B4FF016
:103E10008046984201D0B04203D122F070044A6833
:103E20002243124C124D984205D0B04203D0A0421A
:103E300001D0A84203D122F44076CA6832434E69C9
:103E400022F08002324302608A68C2620A6882629B
:103E5000984203D0A04201D0A84201D10969016370
:103E60000121416170BD0000002C01400040014073
:103E70000044014010B501F01F030421046A994079
:103E80008C430462016A9A401143016210BD10B56F
:103E9000846842EA032224F47F440A432243826076
:103EA00010BD826822F070020A4342F0070181606F
:103EB00070470000F0B5026A22F001020262056A52
:103EC00043688269154C25F0020522400C6822F0F7
:103ED000030214438A68134E2A43114D124FA8421D
:103EE00003D0B04201D0B84206D122F0080CCA6813
:103EF00042EA0C0222F00402A84203D0B04201D0F0
:103F0000B84205D14D6923F440731D438B692B439F
:103F100043608461496841630262F0BD8FFFFEFF28
:103F2000002C0140004001400044014030B5026ACD
:103F300022F010020262046A42688369154D2B4028
:103F40000D6823F4407343EA052524F020038C68B0
:103F500043EA0413104CA04207D1CC6823F080033D
:103F600043EA041323F0400305E00C4CA04202D0C6
:103F70000B4CA04207D14C6922F4406242EA840211
:103F80008C6942EA84024260856149688163036208
:103F900030BD0000FF8FFFFE002C014000400140BB
:103FA0000044014030B5026A22F480720262046A61
:103FB0004268C369144D2B400D6823F003031D4371
:103FC00024F400738C6843EA0423104CA04207D108
:103FD000CC6823F4006343EA042323F4806305E000
:103FE0000B4CA04202D00B4CA04207D14C6922F4EA
:103FF000405242EA04128C6942EA04124260C561EE
:104000004968C163036230BD8FFFFEFF002C014091
:10401000004001400044014030B5026A22F4805261
:104020000262046A4268C3690F4D24F400542B40B5
:104030000D6823F4407343EA05238D6844EA053490
:104040000A4DA84205D00A4DA84202D0094DA84207
:1040500004D14D6922F4804242EA85124260C36174
:1040600049680164046230BDFF8FFFFE002C0140EF
:10407000004001400044014030B5026A22F4803221
:104080000262046A4268436D0E4D2B400D681D4369
:1040900024F400330C8943EA04430B4CA04205D0BE
:1040A0000A4CA04202D00A4CA04204D14C6922F42E
:1040B000803242EA042242604565496881650362B4
:1040C00030BD00008FFFFEFF002C0140004001408A
:1040D0000044014030B5026A22F480120262046A90
:1040E0004268436D0E4D24F400142B400D6843EAE2
:1040F00005230D8944EA05540A4DA84205D00A4D0E
:10410000A84202D0094DA84204D14D6922F4802270
:1041100042EA8522426043654968C165046230BD58
:10412000FF8FFFFE002C0140004001400044014091
:1041300010B5036A046A24F001040462846924F05F
:10414000F00444EA021423F00A020A438461026282
:1041500010BD10B5036A23F0100303628369046A7B
:1041600023F4704343EA023224F0A00343EA01112E
:104170008261016210BDFEE703B40198410000981E
:1041800050EAC12018BF04204A0D18BF40F00100BA
:1041900040F2FF72B2EB515F08BF40F0020001280D
:1041A00008BF052002B070470907090E002804DB8C
:1041B00000F1E02080F80014704700F00F0000F1DB
:1041C000E02080F8141D70472DE9F04D2DED040B13
:1041D0002DED0E8B96B0DDE92550279CDDF890A0E3
:1041E00025F0004624F00048BAF1000F14BF012169
:1041F000002101EB4502FC4953184A1093422AD38F
:10420000002814BF0123002303EB44030B44F749A8
:104210008B4220D358EA00019FEDF59B76D0DFF862
:10422000D8B35D4503D1BAF1000F05D188E0BAF1EA
:10423000000F08BF002100D0012101EB450111F55D
:10424000001F08D8002814BF0121002101EB440100
:1042500011F5001F0BD99DED261B9DED240B16B00B
:1042600000F0DABD04B0BDE8F04D00F081BE0027DB
:10427000002DBCBFE149884521DAE1498845A8BF46
:1042800002271CDAC3451ADCDE4901EB2851142948
:1042900008DDC1F1340220FA02F101FA02F2824291
:1042A0000DD108E058B9C1F1140228FA02F101FA5F
:1042B00002F2424503D101F00101C1F1020756EAC1
:1042C0000A0124D1002C22DA002D18BF022F01D0C0
:1042D000012F0AD00220FCF73AF916B000F0A2BD77
:1042E00004B0BDE8F04D00F02BBE0220FCF72FF922
:1042F00000F026FE51EC100B01F01AFA41EC100B05
:1043000016B000F095BD04B0BDE8F08D18E09FED4B
:10431000BEAB9FEDBF8B002871D1B848804522D13C
:1043200005F1804010F5801008BFBAF1000F07D0EA
:10433000B3450ADC002CA8BF9DED260BE0DA0DE0AA
:10434000B0EE490AF0EE690ADAE7002C06DA9DEDD4
:10435000260B51EC100B01F0EBF96FE0AE487844FE
:1043600090ED000BCCE7D8454DD1002C48DA2EB1AA
:1043700086423AD1BAF1000F42D126E0BAF1000FDD
:1043800013D00220FCF7E3F800F00EFE8DED020BD7
:104390009DED240B8DED000B10EE900A039961F357
:1043A0001E0003909DED020BAAE78DED02AB9DED83
:1043B000240B1AEE901A10EE900A8DED000B61F3AB
:1043C0001E0003909DED020B9AE78DED028B9DED93
:1043D000240B18EE901A10EE900A8DED000B61F38D
:1043E0001E0003909DED020B8AE709DA9DED240B78
:1043F00051EC190B53EC102B01F094FA1EE020E065
:104400009DED240B7CE786421BDAB4F1804F0DD082
:10441000A4F10050B0F1FF5013D1002D11DB9DED40
:10442000240B51EC100B01F036F907E09DED240B45
:1044300053EC102B51EC100B00F0C2BC41EC100BF4
:104440005EE79DED240B51EC100B00F0DFFFBAF19D
:10445000000FCDE90E0142D19FED710B46B3A6F1DD
:10446000E040B0F17F600CD05E4538D1002D00DA1D
:10447000A7B3022F0CBF01204FF0FF3001F0AAFBC1
:10448000DCE7002D01DD002C0DDA002D01DD002C14
:104490001FDB002D16DA002C14DB012F08BF9FED67
:1044A000620B3FF42DAFB0EE4A0AF0EE6A0A27E73E
:1044B000022F18BF002D0CD0012F0AD1002DFFF6BE
:1044C0001FAF06E0002DB8BF002C08DA012F3FF423
:1044D00017AFB0EE480AF0EE680A11E71BE00120C2
:1044E00000EBE57050EA070115D0791EB0EE498A5D
:1044F000F0EE698A084308BF9FED4D8B4E480025BA
:10450000804570DD4D494E48884514DDB0420DDBD5
:10451000002C19DB2FE00120FCF719F816B000F091
:104520008DBC04B0BDE8F04D00F02EBDB34502DCFB
:10453000002C09DC1FE0864202DA002C1BDA03E0C3
:104540005E452BDD002C16DD0220FCF700F800F0A4
:104550002BFD8DED020B53EC1A2B51EC180B01F0D7
:104560009FFBCDE900010399019861F31E000390C0
:104570009DED020BC4E60220FBF7E9FF00F024FDED
:1045800010EE901A18EE900A8DED020B8DED008B57
:1045900061F31E0003909DED020BB1E69DED0E0B45
:1045A00053EC192B51EC100B01F086FD9FED260BFF
:1045B000CDE9080153EC102B9DED080B51EC100BCD
:1045C00001F06EFB9FED221B53EC112B01F09CFCC4
:1045D0009DED081B53EC112B01F062FB9FED1E1BA0
:1045E00053EC112B3CE08CE0FFFF1F00FFFF0F009E
:1045F000000000000000F03F0000F03F0000F07FEE
:104600000000404301FCFFFF000000000000F07FBD
:104610000000000000000000FE2D0000000000006F
:104620000000000000000080000000000000F0FF1B
:10463000000000000000F0BF0000E0410000F04377
:10464000FFFFEF3F00000000000000000000D03F2F
:10465000555555555555D53F000000000000E03F29
:1046600001F052FC9DED080B41EC1A0B53EC102BA2
:1046700051EC100B01F014FB53EC1A2B01F010FB62
:1046800041EC1A0B9FEDFE0B53EC102B9DED080B2C
:1046900051EC100B01F004FB41EC1B0B9FEDFA0BEE
:1046A00051EC1A0B53EC102B01F0FAFA41EC1A0BF7
:1046B0009FEDF70B53EC102B9DED080B51EC100BFD
:1046C00001F0EEFA53EC1A2B01F0F6FC41EC1A0B58
:1046D00051EC1B0B53EC1A2B01F068F80690CDE956
:1046E00006519DED060B53EC1B2B51EC100B01F00A
:1046F000E3FC53EC1A2B01F007FC41EC100B00F02B
:10470000A1B90020B6F5801F0EDA9FEDE30B53EC44
:10471000102B9DED0E0B51EC100B01F0C1FACDE901
:104720000E016FF034000E4600EB2650A0F2FF376A
:10473000C6F31300DA4940F07F6646F040568842DF
:10474000D8BF002408DDD7498142C8BF012403DC5B
:104750000024A6F580167F1CD348784400EBC400E3
:104760000F9690ED00CB9DED0E0B53EC1C2B51ECF6
:10477000100B01F0A1FC9DED0E0B41EC1B0B53EC5B
:104780001C2B51EC100B01F011F841EC100B51EC0B
:10479000190B53EC102B01F0C5F841EC1D0B51EC3B
:1047A0001B0B53EC1D2B01F07BFA41EC1A0BBF489D
:1047B0008DED10AB7844109590ED000B4FF000504C
:1047C00040EA660000EB84408DED080B00F5002008
:1047D00009909DED080B53EC1C2B51EC100B01F0D4
:1047E0006BFC9DED0E1B53EC112B01F08DFB41EC8E
:1047F000100B53EC102B9DED100B51EC100B01F036
:104800004FFA9DED080B41EC1C0B53EC102B9DED6A
:10481000100B51EC100B01F043FA53EC1B2B01F081
:1048200073FB53EC1C2B01F047FC53EC1D2B01F0E8
:1048300037FA41EC1C0B53EC1A2B51EC1A0B01F01C
:104840002FFA41EC1B0B9A480621B0EE4B0AF0EE12
:104850006B0A784400F0F8FAB0EE401AF0EE601AF5
:10486000B0EE41DAF0EE61DA53EC1B2B51EC1B0B8E
:1048700001F016FA53EC1D2B01F012FA9DED100B0E
:1048800041EC1B0B53EC1A2B51EC100B00F08EFF7C
:1048900053EC1C2B01F004FA53EC1B2B00F086FFA9
:1048A0009DED100B41EC1B0B53EC102B51EC100B3E
:1048B00001F0F6F941EC1D0B9FED7FEB53EC1E2B45
:1048C00000F074FF53EC1B2B00F070FF0890CDE953
:1048D00008519DED080B53EC1E2B51EC100B01F011
:1048E000EBFB53EC1D2B01F0E7FB53EC1B2B01F012
:1048F0000BFB9DED080B41EC1D0B53EC102B9DEDBC
:10490000100B51EC100B01F0CBF941EC1B0B53ECED
:104910001A2B51EC1D0B01F0C3F99DED080B41EC76
:104920001A0B53EC102B51EC1C0B01F0B9F953ECA2
:104930001A2B00F03BFF41EC1A0B51EC1B0B53EC14
:104940001A2B00F033FF0C90CDE90C519DED0C0BB0
:1049500053EC1B2B51EC100B01F0AEFB53EC1A2B5C
:1049600001F0D2FA41EC1B0B9FED550B53EC102BD1
:104970009DED0C0B51EC100B01F092F941EC1A0B70
:104980009FED510B51EC1B0B53EC102B01F088F9F0
:1049900041EC1B0B9FED4E0B53EC102B9DED0C0BC4
:1049A00051EC100B01F07CF953EC1B2B00F0FEFED8
:1049B00041EC100B4848784400EBC40090ED001B1C
:1049C00051EC100B53EC112B00F0F0FE41EC1B0BE3
:1049D000384601F0FFF8CDE9080153EC1B2B51ECF0
:1049E0001A0B00F0E3FE41EC100B3C48784400EB5E
:1049F000C40090ED00CB51EC100B53EC1C2B00F0DD
:104A0000D5FE9DED081B53EC112B00F0CFFE069058
:104A1000CDE906519DED080B53EC102B9DED060BD7
:104A200051EC100B01F048FB53EC1C2B01F044FB44
:104A300053EC1A2B01F040FB53EC1B2B01F064FAF2
:104A400041EC100B9DED261B53EC102B8DED001B44
:104A500000959DED260B51EC100B01F021F99DED19
:104A6000000B41EC1A0B53EC102B9DED260B51EC77
:104A7000100B01F021FB9DED061B53EC112B2FE0D9
:104A8000000000604715F73FFE822B654715F73F92
:104A900044DF5DF80BAE543E0000000000004043D0
:104AA0008E9803007AB60B007A290000A82900002E
:104AB000B2280000000000000000000000000840D4
:104AC000000000E009C7EE3FFD033ADC09C7EE3FF6
:104AD000F5015B14E02F3EBE3E270000F8260000E3
:104AE00001F0DEF853EC1A2B00F060FE9DED060B92
:104AF00041EC1A0B53EC102B9DED000B51EC100BFD
:104B000001F0CEF8CDE90C019DED0C0B51EC1A0B28
:104B100053EC102B00F04AFECDE902010C46AA49E5
:104B20008C422FDB611A084318D19DED0C0B53EC1E
:104B3000102B9DED020B51EC100B01F0BDFA41EC76
:104B40001B0B9FEDA30B51EC1A0B53EC102B00F039
:104B50002DFE53EC1B2B01F0A1F92DD20220FBF707
:104B6000F6FC00F021FA10EE901A18EE900A8DED86
:104B7000020B8DED008B61F31E0003909DED020B87
:104B8000FFF7BEBB944A24F00041914214D39349ED
:104B9000214408437FF4EFAC9DED0C0B53EC102B3C
:104BA0009DED020B51EC100B01F086FA53EC1A2B21
:104BB00001F074F97FF6DFAC24F000408849894A9F
:104BC000002601EB205182422BDA481C4FF4801161
:104BD00021FA00F02044844AC0F30A517A44A1F239
:104BE000FF3192ED000B814A8DED080BCA4020EA9F
:104BF0000202C0F3130040F48010C1F1140120FA46
:104C000001F60992002CB8BF76429DED080B53ECDB
:104C1000102B9DED0C0B51EC100B01F04DFACDE972
:104C20000C019DED0C0B51EC1A0B53EC102B00F00A
:104C3000BDFD9FED6F0B0890CDE9085153EC102B93
:104C40009DED080B51EC100B01F02AF841EC1B0B09
:104C50009FED690B53EC102B9DED080B51EC100BE5
:104C600001F01EF89DED0C0B41EC1C0B53EC102BCE
:104C70009DED080B51EC100B01F01EFA53EC1A2BB2
:104C800001F042F99FED5E1B53EC112B01F008F887
:104C900053EC1C2B00F08AFD41EC1A0B51EC1B0B62
:104CA00053EC1A2B00F082FDCDE902019DED020BC1
:104CB00053EC1B2B51EC100B01F0FEF953EC1A2BAB
:104CC00001F022F99DED020B41EC1A0B53EC102B75
:104CD00051EC100B00F0E4FFCDE908014A489DEDCE
:104CE000080B0521784400F0AFF89DED081B51EC4E
:104CF000100B53EC112B00F0D3FF9DED021B53EC76
:104D0000112B01F001F9CDE906019DED020B53ECE9
:104D10001A2B51EC100B00F0C3FF53EC1A2B00F0D0
:104D200045FD9FED3B0B41EC1A0B53EC102B9DED19
:104D3000060B51EC100B01F0BFF99DED060B41EC99
:104D40001B0B53EC102B9DED020B51EC100B00F0E4
:104D5000A7FF53EC1B2B00F0E5FD53EC1A2B01F0E1
:104D6000ABF99DED021B53EC112B01F0A5F953ECAF
:104D7000192B01F0C9F8CDE9020101EB065001152C
:104D80000029C8BF039015DC9DED020B324651ECA3
:104D9000100B01F02AFBFFF7EFF9042808BF00F021
:104DA00013F932469DED020B51EC100B01F01DFB87
:104DB000CDE902019DED020B51EC180B53EC102BC9
:104DC00000F06EFFFFF73ABB0000904000000000CB
:104DD000FE822B654715973C00CC904000346F3F16
:104DE00001FCFFFF0000E03F80250000FFFF0F00F7
:104DF00000000000432EE63F396CA80C615C20BE29
:104E0000EF39FAFE422EE63F502400000000000079
:104E10000000000000000040BDEC088BBDEC06CB9C
:104E2000FFF720BABDEC088BBDEC06CBFFF758BAF4
:104E3000BDEC088BBDEC06CBFFF765BABDEC088B6B
:104E4000BDEC06CBFFF76DBB70B504462DED028BB4
:104E50004D1E00EBC500B0EE408AF0EE608A90ED8A
:104E6000000B35F0060017D053EC182B51EC100B4B
:104E700000F016FF41EC100B6D1E04EBC50090ED29
:104E8000001B51EC100B53EC112B00F08FFC41EC8C
:104E9000100B35F00600E7D1022D36D0042D1CD0C2
:104EA000062D1CBFBDEC028B70BD53EC182B51ECD2
:104EB000100B00F0F5FE94ED0A1B53EC112B00F0E3
:104EC00075FC53EC182B00F0EBFE94ED081B53EC33
:104ED000112B00F06BFC41EC100B53EC182B51EC38
:104EE000100B00F0DDFE94ED061B53EC112B00F0CF
:104EF0005DFC53EC182B00F0D3FE94ED040B53EC47
:104F0000102B00F053FC41EC100B53EC182B51EC20
:104F1000100B00F0C5FE94ED021B53EC112B00F0BA
:104F200045FC53EC182B00F0BBFE94ED001B53EC3A
:104F3000112B00F03BFCBDEC028B41EC100B70BD63
:104F40009FED070B10B553EC102B9FED070B51ECA9
:104F5000100B00F0E7FC41EC100B10BD000000004E
:104F60000000000000000000000000000000F03F12
:104F700010B553EC112B51EC100B00F017FC41EC69
:104F8000100B10BD000000009FED050B10B553EC99
:104F9000102B51EC100B00F0C5FC41EC100B10BDB8
:104FA00000000000000000009FED050B10B553EC61
:104FB000102B51EC100B00F073FE41EC100B10BDE8
:104FC00000000000000000709FED050B10B553ECD1
:104FD000102B51EC100B00F063FE41EC100B10BDD8
:104FE000000000000000001030380A2801D2012023
:104FF00070470020704700002DE9F05F544C834655
:105000005449A069B4F91050C217411842F1FF3059
:10501000A1FB012300FB013301FB0038A2FB053794
:10502000EE1708FB057502FB0659B4F90E504FF058
:10503000000AA5FB017CEE1706FB01C605FB006517
:105040006E0446EAD7367F04FB1846EB09061AEBD6
:105050000309B4F90A30B4F90C50A2FB037C46EB07
:10506000C5054FEAE37608FB03C302FB0632B4F939
:1050700008604FEA1723A6FB01C84FEAE67707FB53
:10508000018106FB00104FEA003143EA02634FEA58
:105090000C3041EA1C51181841EB2222001CE18817
:1050A00042F50043A0FB017603FB016100FB0A10FF
:1050B0004210C31752EA030048D0CBF58010C11745
:1050C000C907C60741EA5001B6EB090661EB0501C5
:1050D00040F63545A6FB050C01FB05C1002706FB84
:1050E0000711FBF7CFF8B4F91630420B42EAC14280
:1050F000A3FB027CDD1705FB02C54E1303FB065321
:10510000A7FB025C03FB02C207FB06236A0E42EA0E
:10511000C3125D16B4F91430A3FB007CDE1706FB46
:1051200000C603FB0166FB0C801843EA4633694165
:10513000C01841EBE6414FEA102040EA0160B4F9A3
:1051400012104FEA0111401800F006B80020FBE7EA
:1051500008010020000CFEFF30BCBDE8C09F00002D
:105160002DE9FC4190460F4605466B460622F72185
:10517000EC20FCF747FB9DF800009DF801100003B0
:1051800040EA01109DF802103E4C40EA111666609C
:105190009DF803009DF80410000340EA01109DF8FB
:1051A000051040EA11103849A060C2100B88B1F90F
:1051B00002C0A2EB4302C3EB20104043B1F904301C
:1051C00002FB0CF20013D212584302EBA0308861AC
:1051D00000EB80008030001200F0FCFC9FED2B1BE8
:1051E00053EC112B00F09EFB00F0AEFAE06030466D
:1051F000FFF702FF00F005FD9FED261B53EC112B7E
:1052000000F090FB00F0A0FA2061294604F11000A4
:1052100000F0C8F994ED030A87ED000AD5ED000A05
:10522000F5EEC00AF1EE10FA26DD9FED1C1A81EEB4
:10523000200A10EE100A01F029F841EC100B9FED46
:10524000181BFEF7C1FF9FED181B51EC100B53EC20
:10525000112B00F031FF9FED161B53EC112B00F0CA
:105260001FFD9FED151B53EC112B00F05BFB00F0B5
:105270006BFA00EE100A01E09FED110A88ED000ABA
:10528000BDE8FC811800002008010020000000009B
:1052900000005940000000000000D940CDEC7D44E2
:1052A00028610C878A5AC83F000000000000F03FC8
:1052B0000000006066A2724000000080BE9F7A3F3E
:1052C0000000000070B5134C0125607808B1012082
:1052D00070BDFCF77FF9142000F020F8D021EC20FD
:1052E000FCF7BCFA2070582801D0002070BD0A4B92
:1052F00018228821EC20FCF785FAB322F421EC2057
:10530000FCF7CBFA1422F521EC20FCF7C6FA657005
:10531000DDE70000180000200801002070B50546F8
:1053200000244FF47A7603E0304600F005F8641C60
:10533000AC42F9D370BD000070B54FF0E0240022FC
:1053400065690949A36909684843A1699942FCD084
:1053500002D2A3EB010302E0A5EB010633441A4499
:105360000B468242F1D370BD2C000020084882B069
:10537000816D41F080518165806D064900F080505B
:1053800000901F2088610121002002B0FCF7E0BEE0
:10539000001002400070004010B5FCF7DFFDFEF782
:1053A000FAFCFEF73BFAFEF70BFBFEF7DDFAFEF721
:1053B0002BFB002202211348FCF7A0FB4FF0904486
:1053C000012208212046FCF799FB01221103204607
:1053D000FCF794FB0122D1022046FCF78FFBFCF77F
:1053E0002FF8FFF76FFFFEF782F9FEF7EBF8FEF7F5
:1053F000FDF808210448FDF761FD034932200968E2
:10540000C86310BD00040048A800002082B0CDE9A8
:10541000000121F0004001909DED000B02B051EC25
:10542000100B70472DE9F74F894683464FF000086F
:1054300028E00026A1F1300008F101082E2900D152
:105440000A20144900EBC000002401EB001A00BF41
:1054500004EB0B0009F0FF01C0B2FEF79FF8002536
:1054600006EB460705EBC7001AF800100120FEF70F
:1054700099F96D1C182DF5DB641C761C052CE7DDF5
:1054800009F11809029810F808100029D1D100F08C
:1054900003B80000B86400081EBCBDE8E08F00003F
:1054A0008EB09FED3C0A8DED080A8DED090AFCF7E0
:1054B00055FDFEF770FCFEF7B1F9FEF781FAFEF735
:1054C00053FAFEF7A1FA4FF090440122082120463A
:1054D000FCF714FB012211032046FCF70FFB01220D
:1054E000D1022046FCF70AFBFBF7AAFFFFF7EAFE12
:1054F000FEF7FDF8FEF766F8FEF778F800F0B8F86A
:1055000008212548FDF7DAFC234932200968C863E1
:105510000CAA0AA90BA8FFF723FE0A9800F0B6FE12
:1055200041EC100B1DA153EC102B6846FAF7CEFE90
:105530006B463C2206210120FEF78EF808A909A837
:10554000FBF78EFF00BB089800F0A0FE41EC100BAB
:1055500012A153EC102B6846FAF7B8FE6A460A21EE
:105560000020FFF75FFF099800F090FE41EC100B60
:105570000AA153EC102B6846FAF7A8FE06226B46E8
:1055800011460120FEF768F8FFF7F0FEFFF704FF71
:10559000BEE7000000000000A8000020252E3166B4
:1055A000000000002DE9F0410E462D492B4D00244E
:1055B0002DED028BA4468A789FED268B05EB8203A6
:1055C00090ED000AD3ED000A571CFFB2F5EEC00AB9
:1055D000F1EE10FA0ED183ED000A90ED000A052FCE
:1055E00086ED000A8F7001D381F802C0BDEC028BFA
:1055F000BDE8F08112B153ED010A01E0D5ED040AD6
:10560000184A70EE600AF0EEE00A10EE900A90423E
:1056100006DA83ED000A8F70052F01D381F802C0EE
:1056200055F8240000F032FE53EC182B00F0BEF8C1
:10563000641C41EC180BE4B2052CF1D351EC180BAF
:105640009FED090B53EC102B00F06CF900F07CF887
:105650003060CBE70000000000000000F4000020F4
:1056600018000020CDCCCC3D00000000000014400C
:1056700010B5AC210020FEF795F800210846FEF792
:1056800091F8AF210020FEF78DF8A421BDE810406D
:105690000020FEF787B800B52DED048B83B041ECF8
:1056A000190B00F03DFC41EC180B18EE100A18EE37
:1056B000901A8DED008B002818BF0120084320F0C0
:1056C0000040C0F17F6000F1E040C00F14D019EE3F
:1056D000101A19EE900A8DED009B002918BF0121C8
:1056E000084320F00040C0F17F6000F1E040C00FAF
:1056F00004BF0120FAF72BFF51EC180B03B0BDECEF
:10570000048B00BD10B500290AD00878002807D006
:1057100005487844FBF784FA002801D0002010BD2A
:105720000248784410BD00000A1B0000021B000064
:1057300081F00041704780F00040704721F0004147
:10574000704720F00040704721F00042A2F1605203
:10575000B2F5801F01F0004328BFD2F17F6C0BD956
:105760005FEA001C43EAC20242EB507018BF704768
:1057700028BF20F001007047B2F5801FBCBF18465B
:1057800070474FEA410C1CF5001F02D2084600F09A
:10579000F3BD70B500F02EFB00000089FFF7F6BFE7
:1057A0004FF00040A0F580007047000010B591EA6E
:1057B000030F48BF83F0004300F18684841A71EB25
:1057C000030C05D2121943EB0C03001B61EB0C0117
:1057D000DFF824E14FEA1154A4EB135C1EEA430FF7
:1057E00018BF9EEA445F73D023EA0E03DCF1200E5B
:1057F00021EA045143F4801332D322FA0CFE10EB59
:105800000E0023FA0CFE41EB0E01CCF1200E03FA40
:105810000EFE10EB0E0051F10001B1F5801FCCF12E
:10582000200E32D201EB045112FA0EF2BDE8104004
:1058300058BF7047401C38BF5FEA420218BF70472C
:10584000002814BF20F0010041F100014FEA41039C
:1058500013F5001F38BF7047A1F1C04100F018BB1D
:10586000012A43EB0302ACF1200CDCF11F0E32BF26
:105870004FF0000E23FA0CF310EB030041EB045140
:10588000B4EB115FD0D0A1EB045101F580114908B0
:105890005FEA300001EB04510ED350F1000038BF35
:1058A00012FA0EFE08D1BDE81040C9E7401C38BF0F
:1058B0005FEA4202CAD1C3E7BDE810404FEA4103A4
:1058C00013F5001F38BF7047A1F1C04100F0E0BAE6
:1058D0009EEA445F08D011EA5E0FBDE8104004BFA5
:1058E00001F0004100207047BDE8104070B500F0A5
:1058F00081FA00BF64FBBE3E0000E0FF02494FF0AA
:10590000000000F040BD00BF0000F87F491058BF04
:10591000C1F140415B1058BFC3F140438B42EFF3EC
:10592000008070472DE9C04130B4DFF8A0C23CEAE6
:10593000111418BF3CEA131400F0EC8081EA03054F
:105940001CEA111444EAD57418BF1CEA131500F0C0
:10595000C780A4EB05044FF0004545EAC12145EAA4
:10596000C32341EA505143EA525304F17F749942F0
:1059700004F500344FEAC0204FEAC22208BF90422B
:1059800000F09C804FEA13650FF24016765D4FEAF7
:10599000134506FB05F7C7F1807706FB07F74FEACB
:1059A000D737A7FB03687642C8F58038A7FB06CE39
:1059B00038BFA8F1010807FB08E64FF0000EA6FB70
:1059C000028CE6FB03CEDCF1000CCEF1004E38BFBA
:1059D000AEF1010EA6FB0C584FF000074FF000058A
:1059E000E6FB0E87A1FB08C6A0FB07CE16EB0E0652
:1059F00045F10005E1FB076515F1E04E7EBFA4F51A
:105A000080345FEA46066D4116F1800745F10005D6
:105A10004FEA17274FEA066647EA0567A6F1DE4612
:105A2000B6F1805F4FEA15251FD9384624F0010CE6
:105A300005EBC471BCF1FE6F01EB0C1102D8F0BC98
:105A4000BDE8008124425CBF01F5801E9EEAC47F50
:105A500002D4F0BCBDE80081244238D4F0BCA1F1EE
:105A6000C041BDE8004100F013BA4FEAD22242EA39
:105A700043524FEAD323A7FB02864FEAD02040EAE5
:105A8000415007FB03661EEA0E0F4FEAD12105FBCA
:105A9000026658BFA6EB0056B6EB00564FEA520E10
:105AA0004EEAC37E18EB0E0E56EB530EBDD518EB27
:105AB00002085E417F1C55F10005B6E74FF48015E2
:105AC0004FF000074FF000064FF00008ADE7F0BCC4
:105AD0004FF0000001F1C04101F00041BDE800813C
